:0400000007EF00F016
:1000080067823BED0DF093EF12F09A0E0001AE6F90
:10001800000EAF6FB4EF05F0250EC519D8B40AD09D
:1000280096C0D9FF97C0DAFFC5C0DFFF964B972B64
:10003800B4EF05F0000EC26F000EC16F000EBD6F69
:10004800000EBC6F04D00001BC85984B992B98C05A
:10005800F6FF99C0F7FFF86A0800F550300AD8B4DF
:10006800F2D798C0F6FF99C0F7FFF86A0800F55074
:1000780088EC13F0D8A036D0000E0001C26F000E35
:10008800C16FC1C027F0C2C028F0000E2A6E0A0E48
:10009800296E1CEC13F027C0C1F028C0C2F0D00EA6
:1000A8000001A36FFF0EA46F98C0F6FF99C0F7FF79
:1000B800F86A0800F550A56FA66BA351A527A451AF
:1000C800A623A551C127A651C223984B992B98C0A6
:1000D800F6FF99C0F7FFF86A0800F55088EC13F0AE
:1000E800D8B0CFD798C0F6FF99C0F7FFF86A0800D4
:1000F800F5502E0AD8A432D00001BD8D984B992B0B
:10010800000EC46F000EC36F1DD0C3C027F0C4C05B
:1001180028F0000E2A6E0A0E296E1CEC13F098C007
:10012800F6FF99C0F7FFF86A0800F5502726000E79
:100138002822D00E27240001C36FFF0E2820C46F89
:10014800984B992B98C0F6FF99C0F7FFF86A0800FA
:10015800F55088EC13F0D8A081D0D7D7000E000155
:10016800C46F000EC36FBD8979D0BD8592D0AEC073
:10017800D9FFAFC0DAFFDECFACF0DDCFADF0020EB5
:10018800AE27000EAF23AC51AD11D8A404D0ED0EAC
:10019800AC6FFF0EAD6F000EB16F000EB06F02D0E6
:1001A800B04BB12BB051AC25A36FB151AD21A46FA9
:1001B800A3C0F6FFA4C0F7FFF86A0800F5500009CD
:1001C800D8A4EED7C351C411D8B40AD0B051C35D76
:1001D800B151C459D8B004D0C3C0B0F0C4C0B1F054
:1001E800C151B05DC251B159D8B005D0B051C15F4D
:1001F800B151C25B0DD0000EC26F000EC16F08D0A6
:1002080096C0D9FF97C0DAFF200EDF6E964B972B6A
:10021800C107D8A0C207C129F3E1C229D8B411D0B7
:10022800EFD7ACC0F6FFADC0F7FFF86A96C0D9FFAC
:1002380097C0DAFF0800F5CFDFFFAC4BAD2B964B2C
:10024800972BB007D8A0B107B029EBE1B129D8B4F2
:10025800B4EF05F0E6D7C00EBC131BD098C0F6FF6C
:1002680099C0F7FF0001984B992BF86A0800F5CF61
:10027800C5F0C551000AD8B4C2EF05F0660AD8B473
:1002880074D7150AD8B473D7060AD8B4E4D7B4EF2C
:1002980005F0070EBD15D8B433D3BDA904D0000EA0
:1002A800C46F060EC36FAEC0D9FFAFC0DAFFDECF92
:1002B800BEF0DECFBFF0DDCFC0F0030EAE27000EDC
:1002C800AF23C0AF11D0BEC019F0BFC01AF0C0C074
:1002D8001BF054EC13F019C0BEF01AC0BFF01BC0DD
:1002E800C0F0030E0001BC13000EBB6F000EBA6F06
:1002F800BE51BF11C011D8B486D0820EA36FFF0EB5
:10030800A46FBEC0A5F0BFC0A6F0C0C0A7F0C1C012
:10031800A8F0100E05D0D890A833A733A633A5337C
:10032800E82EF9D7A551A325BA6F000EA421BB6FFB
:10033800BA07D8A0BB07BAC027F0BBC028F0000E88
:100348002A6E030E296E1CEC13F027C0BAF028C0E1
:10035800BBF0BAC01FF0BBC020F0000E226E0A0E20
:10036800216ECAEC0FF01FC0BAF020C0BBF000012C
:10037800BBAF03D0BA07D8A0BB07BA510008C9EC75
:1003880005F058C0B6F059C0B7F05AC0B8F0B6C0BA
:1003980049F0B7C04AF0B8C04BF0BEC04CF0BFC07F
:1003A8004DF0C0C04EF03EEC0EF049C0B6F04AC069
:1003B800B7F04BC0B8F0B6C019F0B7C01AF0B8C063
:1003C8001BF0000E1C6E800E1D6E3F0E1E6E82EC22
:1003D8000FF0D8B005D00001BA07D8A0BB0713D0DA
:1003E800B6C019F0B7C01AF0B8C01BF0000E1C6EEA
:1003F800200E1D6E410E1E6E82EC0FF0D8A003D0A9
:100408000001BA4BBB2B0001C4BF06D0C4511BE18D
:100418000D0EC35DD8B017D0BEC087F0BFC088F03E
:10042800C0C089F0C351FDEC07F058C08AF059C02C
:100438008BF05AC08CF016EC0AF087C0BEF088C06A
:10044800BFF089C0C0F00001BBBF06D0BB511FE19F
:100458000A0EBA5DD8B01BD0BE51BF11C011D8B4B6
:1004680055D0BEC084F0BFC085F0C0C086F0C2ECD5
:100478000DF000018451851186118711D8B4BBBFD6
:1004880045D0BB5104E1020EBA5DD8A03FD0B6C03A
:1004980019F0B7C01AF0B8C01BF0700E1C6E890EA8
:1004A8001D6E400E1E6E82EC0FF0D8B003D0000116
:1004B800F70E02D00001F80EBA27FF0EBB23BA517F
:1004C800C9EC05F058C0B6F059C0B7F05AC0B8F03A
:1004D800BEC019F0BFC01AF0C0C01BF0B6C01CF0F7
:1004E800B7C01DF0B8C01EF0EDEC0AF019C0B2F0AC
:1004F8001AC0B3F01BC0B4F01CC0B5F0000E000168
:10050800BE6F000EBF6F000EC06F33D0BEC084F048
:10051800BFC085F0C0C086F0C2EC0DF084C0B2F058
:1005280085C0B3F086C0B4F087C0B5F0BEC090F007
:10053800BFC091F0C0C092F0B2C021F0B3C022F0A9
:10054800B4C023F0B5C024F054EC11F021C093F0EE
:1005580022C094F023C095F051EC12F090C0BEF088
:1005680091C0BFF092C0C0F0000E0001BB6F000E3A
:10057800BA6F010EC56F0A0EC519D8B41BD0C55184
:10058800040DA30EF324F66EFE0EF420F76EF86A3F
:10059800000EF8220900F550B25D0900F550B35974
:1005A8000900F550B4590900F550B559D8A002D042
:1005B800C52BE1D7C5C0A3F0A46BA3BFA407C35143
:1005C800A327C451A423BA51A327BB51A423A351E1
:1005D800C15FA451C25BC351C411D8B403D0C107D1
:1005E800D8A0C207030EBC15A36F000EBD15A46FDB
:1005F800A351A411D8B403D0C107D8A0C207BCA581
:1006080031D0030EBC15A36F000EBD15A46FA35106
:10061800A411D8B414D096C0D9FF97C0DAFF2D0E14
:10062800DF6E964B972B0BD096C0D9FF97C0DAFF99
:10063800300EDF6E964B972BC107D8A0C207C2BFFA
:1006480075D0C251F1E1C105D8A070D0EDD796C0E0
:10065800D9FF97C0DAFF200EDF6E964B972BC107A4
:10066800D8A0C207C2BF05D0C251F1E1C105D8B0B8
:10067800EED7030EBC15A36F000EBD15A46FA351D2
:10068800A411D8B453D096C0D9FF97C0DAFF2D0E65
:100698004AD0B2C019F0B3C01AF0B4C01BF0B5C04C
:1006A8001CF0C551040DA30EF324F66EFE0EF420C3
:1006B800F76EF86A000EF8220900F5CF1DF0090060
:1006C800F5CF1EF00900F5CF1FF00A00F5CF20F096
:1006D8000CEC10F019C0B6F01AC0B7F01BC0B8F097
:1006E8001CC0B9F0B6C026F0B7C027F0B8C028F0D3
:1006F800B9C029F00A0E2A6E000E2B6E000E2C6E61
:10070800000E2D6EF0EC10F026C0B6F027C0B7F042
:1007180028C0B8F029C0B9F00001B651300F96C012
:10072800D9FF97C0DAFFDF6E964B972BC507C5290F
:10073800D8B40CD0AED796C0D9FF97C0DAFF300E28
:10074800DF6E964B972BBA07D8A0BB07BBBF05D067
:10075800BB51F1E1BA05D8B0EED7C4BF09D0C45136
:1007680004E1090EC35DD8A003D0080EC56F02D0FE
:10077800C3C0C5F0C551C35F000EC5BFFF0EC45B43
:10078800C551D8B408D096C0D9FF97C0DAFF2E0E4D
:10079800DF6E964B972BC551C9EC05F058C0A9F0F0
:1007A80059C0AAF05AC0ABF0BEC04CF0BFC04DF063
:1007B800C0C04EF0A9C049F0AAC04AF0ABC04BF087
:1007C8003EEC0EF049C084F04AC085F04BC086F07C
:1007D800C2EC0DF084C0B2F085C0B3F086C0B4F0AE
:1007E80087C0B5F077D0B2C019F0B3C01AF0B4C062
:1007F8001BF0B5C01CF00001C551040DA30EF32475
:10080800F66EFE0EF420F76EF86A000EF822090064
:10081800F5CF1DF00900F5CF1EF00900F5CF1FF048
:100828000A00F5CF20F00CEC10F019C0B6F01AC091
:10083800B7F01BC0B8F01CC0B9F0B6C026F0B7C0FE
:1008480027F0B8C028F0B9C029F00A0E2A6E000EA9
:100858002B6E000E2C6E000E2D6EF0EC10F026C0E4
:10086800B6F027C0B7F028C0B8F029C0B9F0000129
:10087800B651300F96C0D9FF97C0DAFFDF6E964B9E
:10088800972BB2C026F0B3C027F0B4C028F0B5C08B
:1008980029F0C551040DA30EF324F66EFE0EF420C4
:1008A800F76EF86A000EF8220900F5CF2AF0090061
:1008B800F5CF2BF00900F5CF2CF00A00F5CF2DF07D
:1008C800F0EC10F026C0B2F027C0B3F028C0B4F0A6
:1008D80029C0B5F00001C507C529D8B40CD083D705
:1008E80096C0D9FF97C0DAFF300EDF6E964B972B74
:1008F800C307D8A0C407C351C411D8B431D1F0D7A5
:10090800AEC0D9FFAFC0DAFFDECFA3F0DDCFA4F0D1
:10091800A3C0B2F0A4C0B3F0B46BB56B020EAE279F
:10092800000EAF23C351C411D8A408D0B251B311DB
:10093800B411B511D8A402D0C34BC42B010EC56F96
:100948000A0EC519D8B41BD0C551040DA30EF32443
:10095800F66EFE0EF420F76EF86A000EF822090013
:10096800F550B25D0900F550B3590900F550B45976
:100978000900F550B559D8A002D0C52BE1D7800E93
:10098800C5BF7F0EA36FC351C55DC451800AA3596B
:10099800D8B003D0C3C0C5F010D0C451800AA36F2B
:1009A800C551C35D800EC5BF7F0EA359D8B005D011
:1009B800C551C36FC46BC3BFC407C151C211D8B4FA
:1009C8000DD0030EBC15A36F000EBD15A46FA35167
:1009D800A411D8B403D0C107D8A0C207BDAD13D0A5
:1009E800C151C35DC451800AA36FC251800AA35983
:1009F800D8B005D0C351C15FC451C25B04D0000E4A
:100A0800C26F000EC16F800EC5BF7F0EA36FC151AC
:100A1800C55DC251800AA359D8B007D0C551C15F7E
:100A2800000EC5BFFF0EC25B04D0000EC26F000EE1
:100A3800C16FBCA522D0030EBC15A36F000EBD1557
:100A4800A46FA351A411D8B408D096C0D9FF97C0F9
:100A5800DAFF2D0EDF6E964B972BC151C211D8B419
:100A680077D096C0D9FF97C0DAFF300EDF6E964B6D
:100A7800972BC107D8A0C207F0D7C151C211D8B46B
:100A88000FD096C0D9FF97C0DAFF200EDF6E964BC5
:100A9800972BC107D8A0C207C151C211D8A4F1D75A
:100AA800030EBC15A36F000EBD15A46FA351A411AE
:100AB800D8B44ED096C0D9FF97C0DAFF2D0EDF6E9E
:100AC80045D0C3C0A3F0C4C0A4F0D890A337A437BE
:100AD800D890A337A437A30EA325F66EFE0EA42143
:100AE800F76EF86A000EF8220900F5CF1DF009002C
:100AF800F5CF1EF00900F5CF1FF00A00F5CF20F062
:100B0800B2C019F0B3C01AF0B4C01BF0B5C01CF0E5
:100B18000CEC10F019C026F01AC027F01BC028F002
:100B28001CC029F00A0E2A6E000E2B6E000E2C6EC9
:100B3800000E2D6EF0EC10F02650300F0001C56F3E
:100B480096C0D9FF97C0DAFFC5C0DFFF964B972B39
:100B5800C307D8A0C407C329B4E1C429D8A4B1D70E
:100B680098C0F6FF99C0F7FF984B992BF86A0800D0
:100B7800F5CFC5F0C551D8A410EF00F096C0D9FF45
:100B880097C0DAFF000EDF6E12000001836F0001CC
:100B980083AF18D1836D8351800A120FD8A09CD0DF
:100BA800000E2A6E030E296E000E226E0A0E216EAA
:100BB800000E1C6E640E1B6E8351196E1A6A19BEE4
:100BC8001A064DEC10F019C01FF01AC020F0CAEC3C
:100BD8000FF0090E1F24276E000E2020286E1CEC33
:100BE80013F0F20E2724F66EFE0E2820F76EF86A30
:100BF800000EF8220900F5CF4CF00900F5CF4DF0B2
:100C08000A00F5CF4EF0000E226E640E216E000130
:100C180083511F6E206A1FBE2006CAEC0FF0120E09
:100C28001F24276E000E2020286E000E2A6E030E49
:100C3800296E1CEC13F0F20E2724F66EFE0E282007
:100C4800F76EF86A000EF8220900F5CF49F009009E
:100C5800F5CF4AF00A00F5CF4BF03EEC0EF049C054
:100C680080F04AC081F04BC082F080C049F081C05A
:100C78004AF082C04BF0000E2A6E030E296E000E59
:100C88001C6E0A0E1B6E00018351196E1A6A19BE7A
:100C98001A064DEC10F019C027F01AC028F01CEC09
:100CA80013F0F20E2724F66EFE0E2820F76EF86A6F
:100CB800000EF8220900F5CF4CF00900F5CF4DF0F1
:100CC8000A00F5CF4EF03EEC0EF049C058F04AC08D
:100CD80059F04BC05AF0120000018351800A750F79
:100CE800D8A05AD0000E226E0A0E216E83511F6EB4
:100CF800206A1FBE2006CAEC0FF0090E1F24276EBB
:100D0800000E2020286E000E2A6E030E296E1CECA1
:100D180013F0F20E2724F66EFE0E2820F76EF86AFE
:100D2800000EF8220900F5CF49F00900F5CF4AF086
:100D38000A00F5CF4BF0000E2A6E030E296E000E46
:100D48001C6E0A0E1B6E00018351196E1A6A19BEB9
:100D58001A064DEC10F019C027F01AC028F01CEC48
:100D680013F0F20E2724F66EFE0E2820F76EF86AAE
:100D7800000EF8220900F5CF4CF00900F5CF4DF030
:100D88000A00F5CF4EF03EEC0EF049C058F04AC0CC
:100D980059F04BC05AF0120000018351030DF20EB6
:100DA800F324F66EFE0EF420F76EF86A000EF822B1
:100DB8000900F5CF58F00900F5CF59F00A00F5CF32
:100DC8005AF012008351800A120FD8A09CD0000E4E
:100DD8002A6E030E296E000E226E0A0E216E000E78
:100DE8001C6E640E1B6E8351196E1A6A19BE1A06A0
:100DF8004DEC10F019C01FF01AC020F0CAEC0FF02B
:100E0800090E1F24276E000E2020286E1CEC13F0FC
:100E1800CB0E2724F66EFE0E2820F76EF86A000E19
:100E2800F8220900F5CF4CF00900F5CF4DF00A0083
:100E3800F5CF4EF0000E226E640E216E0001835134
:100E48001F6E206A1FBE2006CAEC0FF0120E1F2468
:100E5800276E000E2020286E000E2A6E030E296EC3
:100E68001CEC13F0CB0E2724F66EFE0E2820F76E2E
:100E7800F86A000EF8220900F5CF49F00900F5CF0D
:100E88004AF00A00F5CF4BF03EEC0EF049C080F076
:100E98004AC081F04BC082F080C049F081C04AF05E
:100EA80082C04BF0000E2A6E030E296E000E1C6ED7
:100EB8000A0E1B6E00018351196E1A6A19BE1A06B2
:100EC8004DEC10F019C027F01AC028F01CEC13F0F4
:100ED800CB0E2724F66EFE0E2820F76EF86A000E59
:100EE800F8220900F5CF4CF00900F5CF4DF00A00C3
:100EF800F5CF4EF03EEC0EF049C058F04AC059F01C
:100F08004BC05AF0120000018351800A750FD8A017
:100F18005AD0000E226E0A0E216E83511F6E206A6F
:100F28001FBE2006CAEC0FF0090E1F24276E000E04
:100F38002020286E000E2A6E030E296E1CEC13F07A
:100F4800CB0E2724F66EFE0E2820F76EF86A000EE8
:100F5800F8220900F5CF49F00900F5CF4AF00A0058
:100F6800F5CF4BF0000E2A6E030E296E000E1C6E94
:100F78000A0E1B6E00018351196E1A6A19BE1A06F1
:100F88004DEC10F019C027F01AC028F01CEC13F033
:100F9800CB0E2724F66EFE0E2820F76EF86A000E98
:100FA800F8220900F5CF4CF00900F5CF4DF00A0002
:100FB800F5CF4EF03EEC0EF049C058F04AC059F05B
:100FC8004BC05AF0120000018351030DCB0EF324DD
:100FD800F66EFE0EF420F76EF86A000EF82209008D
:100FE800F5CF58F00900F5CF59F00A00F5CF5AF0BF
:100FF80012000001866F6D0E00018665A8D0000EF4
:101008002A6E030E296E000E226E0A0E216E000E45
:101018001C6E640E1B6E86C019F01A6A4DEC10F037
:1010280019C01FF01AC020F0CAEC0FF0090E1F24D7
:10103800276E000E2020286E1CEC13F0F20E2724D9
:10104800F66EFE0E2820F76EF86A000EF8220900E8
:10105800F5CF4CF00900F5CF4DF00A00F5CF4EF072
:10106800000E226E640E216E86C01FF0206ACAEC44
:101078000FF0120E1F24276E000E2020286E000E7F
:101088002A6E030E296E1CEC13F0F20E2724F66E5E
:10109800FE0E2820F76EF86A000EF8220900F5CF38
:1010A80049F00900F5CF4AF00A00F5CF4BF03EECC5
:1010B8000EF049C083F04AC084F04BC085F0000EA2
:1010C8002A6E030E296E000E1C6E0A0E1B6E86C059
:1010D80019F01A6A4DEC10F019C027F01AC028F060
:1010E8001CEC13F0F20E2724F66EFE0E2820F76E85
:1010F800F86A000EF8220900F5CF4CF00900F5CF88
:101108004DF00A00F5CF4EF083C049F084C04AF094
:1011180085C04BF03EEC0EF049C080F04AC081F02B
:101128004BC082F080C049F081C04AF082C04BF0C9
:10113800000E4C6E000E4D6E3F0E4E6E3EEC0EF0E5
:1011480049C058F04AC059F04BC05AF012000A0E74
:101158000001866569D0000E2A6E030E296E000E06
:101168001C6E0A0E1B6E86C019F01A6A4DEC10F040
:1011780019C027F01AC028F01CEC13F0F20E27242F
:10118800F66EFE0E2820F76EF86A000EF8220900A7
:10119800F5CF4CF00900F5CF4DF00A00F5CF4EF031
:1011A800000E226E0A0E216E86C01FF0206ACAEC5D
:1011B8000FF0090E1F24276E000E2020286E000E47
:1011C8002A6E030E296E1CEC13F0F20E2724F66E1D
:1011D800FE0E2820F76EF86A000EF8220900F5CFF7
:1011E80049F00900F5CF4AF00A00F5CF4BF03EEC84
:1011F8000EF049C083F04AC084F04BC085F083C02C
:1012080049F084C04AF085C04BF0000E4C6E000EC9
:101218004D6E3F0E4E6E3EEC0EF049C058F04AC07F
:1012280059F04BC05AF0120000018651030DF20E1E
:10123800F324F66EFE0EF420F76EF86A000EF8221C
:101248000900F5CF49F00900F5CF4AF00A00F5CFBB
:101258004BF0000E4C6E000E4D6E3F0E4E6E3EEC87
:101268000EF049C058F04AC059F04BC05AF012006D
:10127800A3EC13F00009D8B41200D0EC13F001016C
:10128800126FC1D0020E0001966F010E976F8B0E80
:10129800986FFF0E996F5FC09AF09B6B60C09CF0CF
:1012A8009D6B61C09EF09F6B09EC00F0020E1A6EF8
:1012B800010E1B6E82EC11F01200020E0001966FF7
:1012C800010E976FE40E986FFF0E996FCAC09AF0DF
:1012D800CBC09BF0CCC09CF009EC00F0020E1A6E5B
:1012E800010E1B6E82EC11F0120066B004D0F80EED
:1012F800196FFF0E03D0FC0E196FFF0E1A6F66B23E
:1013080004D0F80E1B6FFF0E03D0FC0E1B6FFF0EF0
:101318001C6F020E0001966F010E976F630E986F97
:10132800FF0E996F1BC19AF01CC19BF019C19CF06C
:101338001AC19DF009EC00F0020E1A6E010E1B6E28
:1013480082EC11F01200BAEC13F0D00F0101136F08
:10135800BAEC13F0D00F0101146FBAEC13F00101CD
:10136800006FBAEC13F0D00F0101156FBAEC13F04F
:10137800D00F0101166FBAEC13F00101016FBAEC3E
:1013880013F0D00F0101176FBAEC13F0D00F010161
:10139800186F13510A0DF35014255F6E15510A0D7D
:1013A800F3501625606E17510A0DF3501825616E1B
:1013B800180E5F6021D03C0E60601ED03C0E61604C
:1013C8001BD0020E0001966F010E976F190E986FD1
:1013D800FF0E996F5FC09AF09B6B60C09CF09D6B8D
:1013E80061C09EF09F6B09EC00F0020E1A6E010EB0
:1013F8001B6E82EC11F01200330E1A6EFF0E1B6E7C
:1014080082EC11F0120001011251540AD8B455D7D8
:10141800270AD8B46AD7070AD8B434D7030AD8A495
:10142800120091D789C05BF05C6A5D6A000188355B
:101438005B3601E35C805B508F6F8CC05BF05C6A4D
:101448005D6A8B355B3601E35C805B508E6F8F5134
:10145800D8B40BD08E518F5DD8B00ED08F51000804
:101468008E255B6E180E5B6407D08AC087F08BC030
:1014780088F08CC089F012008E51D8B40BD08F51EF
:101488008E5DD8B00ED08E5100088F255B6E180E79
:101498005B6407D087C087F088C088F089C089F06E
:1014A8001200060E8D6F89BF8D8F8CBF8D8D888F32
:1014B800FF0E8717FF0E8817000E89178B8FFF0EF8
:1014C8008A17FF0E8B17000E8C178E518F5DD8B0C0
:1014D8001BD0D8908A378B378C378E078F518E194F
:1014E800D8B40DD08D078DC05BF0070E5B16D8B44D
:1014F80006D0EFD7D8908933883387338F2B8E5116
:101508008F19D8B41FD0F6D78F518E5DD8B01AD0A6
:10151800D8908737883789378F078F518E19D8B475
:101528000DD08D078DC05BF0070E5B16D8B406D0C2
:10153800EFD7D8908C338B338A338E2B8E518F19FB
:10154800D8A4F7D78DAF0CD0FF0E871BFF0E881BD2
:10155800FF0E891B010E8727000E8823000E8923A2
:101568008DAD0CD0FF0E8A1BFF0E8B1BFF0E8C1B44
:10157800010E8A27000E8B23000E8C23000E8D6F20
:1015880087518A2788518B2389518C238CAF0ED0A1
:10159800FF0E8A1BFF0E8B1BFF0E8C1B010E8A276A
:1015A800000E8B23000E8C23010E8D6F8AC019F05C
:1015B8008BC01AF08CC01BF08FC01CF08DC01DF0C2
:1015C8002BEC0FF019C087F01AC088F01BC089F007
:1015D80012001BC01FF0206A216A1A341F3601E36B
:1015E80020801F50276E2750D8A409D0000E196EEE
:1015F800000E1A6E000E1B6E000E1C6E12001EC02E
:101608001FF0206A216A1D341F3601E320801F5015
:10161800266E2650D8A409D0000E196E000E1A6E38
:10162800000E1B6E000E1C6E12001A8EFF0E19168D
:10163800FF0E1A16000E1B161D8EFF0E1C16FF0E2F
:101648001D16000E1E16000E226E000E236E000ED2
:10165800246E000E256E7F0E275E2650980F275E9B
:10166800180E266ED89022362336243625361C507E
:10167800195C1D501A581E501B58D8A007D01C5072
:10168800195E1D501A5A1E501B5A2280D8901936BE
:101698001A361B36262EE6D727AE16D02750800AD4
:1016A800970FD8B009D0000E196E000E1A6E000EF2
:1016B8001B6E000E1C6E1200D89025322432233285
:1016C8002232273EF9D715D0170E27640FD0000E07
:1016D800196E000E1A6E000E1B6E000E1C6E1200A4
:1016E800D890223623362436253627062750D8A404
:1016F800F7D722C019F023C01AF024C01BF025C068
:101708001CF012001B341C34246E2450D8A409D0B9
:10171800000E196E000E1A6E000E1B6E000E1C6E67
:1017280012001E341F34236E2350D8A409D0000E93
:10173800196E000E1A6E000E1B6E000E1C6E120043
:101748001B8EFF0E1916FF0E1A16FF0E1B16000E23
:101758001C161E8EFF0E1C16FF0E1D16FF0E1E16E3
:10176800000E1F16000E1F6E000E206E000E216E5A
:10177800000E226E7F0E245E2350A00F245E200EE2
:10178800236ED8901F362036213622361C50195C1D
:101798001D501A581E501B581F501C58D8A009D04D
:1017A8001C50195E1D501A5A1E501B5A1F501C5AA5
:1017B8001F80D89019361A361B361C36232EE1D7CF
:1017C80024AE16D02450800A9F0FD8B009D0000E3E
:1017D800196E000E1A6E000E1B6E000E1C6E1200A3
:1017E800D8902232213220321F32243EF9D715D028
:1017F8001F0E24640FD0000E196E000E1A6E000E14
:101808001B6E000E1C6E1200D8901F362036213633
:10181800223624062450D8A4F7D71FC019F020C0B8
:101828001AF021C01BF022C01CF0120066A412009E
:1018380081BA42D0020E206E040E1F6EBA0EE82E38
:10184800FED71F2EFCD7202EFAD700D05E50D8A482
:101858000FD0010E6124196E1A6A000E1A22000EAA
:101868001C6E3C0E1B6E4DEC10F01950616E24D0AE
:101878005E04D8A40FD0010E6024196E1A6A000EF7
:101888001A22000E1C6E3C0E1B6E4DEC10F0195007
:10189800606E12D0020E5E18D8A40ED0010E5F241E
:1018A800196E1A6A000E1A22000E1C6E180E1B6E94
:1018B8004DEC10F019505F6E81B61200020E206ECA
:1018C800040E1F6EBA0EE82EFED71F2EFCD7202E50
:1018D800FAD700D05E50D8A411D06150D8B407D040
:1018E800FF0E6124216E226AFF0E222204D0000E10
:1018F800226E3B0E216E21C061F012005E04D8A456
:1019080011D06050D8B407D0FF0E6024236E246A2B
:10191800FF0E242204D0000E246E3B0E236E23C03B
:1019280060F01200020E5E18D8A412005F50D8B4FE
:1019380007D0FF0E5F24256E266AFF0E262204D0EC
:10194800000E266E170E256E25C05FF01200010EE0
:10195800236E010E72EC12F0CD0E0001966F000E90
:10196800976F4B0E986FFF0E996F5FC09AF09B6B45
:1019780060C09CF09D6B61C09EF09F6BCAC0A0F0D8
:10198800CBC0A1F0CCC0A2F009EC00F0CD0E276EC0
:10199800000E286EADEC11F0020E236E010E72ECF3
:1019A80012F066B205D0F80E0001C66FFF0E04D023
:1019B800F40E0001C66FFF0EC76F66B004D0F80EB4
:1019C800C86FFF0E03D0F40EC86FFF0EC96FCD0E9F
:1019D800966F000E976FD70E986FFF0E996FC8C05D
:1019E8009AF0C9C09BF0C6C09CF0C7C09DF009EC36
:1019F80000F0CD0E276E000E286EADEC11F0030E30
:101A0800236E010E72EC12F066A41FD05E50D8A4AB
:101A180007D0B90E276EFF0E286EADEC11F01BD063
:101A28005E04D8A407D0C80E276EFF0E286EADEC52
:101A380011F011D0020E5E18D8A40DD09B0E276E9F
:101A4800FF0E286EADEC11F006D0AA0E276EFF0E21
:101A5800286EADEC11F0040E236E010E72EC12F03C
:101A68007A0E276EFF0E286EADEC11F012000600FC
:101A7800FACF07F0FBCF08F0E9CF09F0EACF0AF078
:101A8800E1CF0BF0E2CF0CF0D9CF0DF0DACF0EF0AA
:101A9800F3CF0FF0F4CF10F0F6CF11F0F7CF12F02C
:101AA800F8CF13F0F5CF14F067C015F068C016F042
:101AB80069C017F06AC018F0F2A41BD0850ED56E65
:101AC800B10ED76EE00ED66E66B412D0612A3B0E08
:101AD80061640ED0000E616E602A3B0E606408D00F
:101AE800000E606E5F2A170E5F6402D0000E5F6EF4
:101AF800F294F0A006D066B402D0668401D0669451
:101B0800F090F0B266A40FD0010E5E24016E026A56
:101B1800000E0222000E046E030E036E85EC10F018
:101B280001505E6EF092F2A203D0AFEC13F0F29285
:101B380018C06AF017C069F016C068F015C067F0E1
:101B480014C0F5FF13C0F8FF12C0F7FF11C0F6FF6D
:101B580010C0F4FF0FC0F3FF0EC0DAFF0DC0D9FFAD
:101B68000CC0E2FF0BC0E1FF0AC0EAFF09C0E9FFB1
:101B780008C0FBFF07C0FAFF6792110086C088F013
:101B88000001896B8A6B8535883701E38981885123
:101B9800926F9251D8A409D0000E846F000E856F01
:101BA800000E866F000E876F1200170E886F84C0B4
:101BB80089F085C08AF086C08BF088298C6F04D0A4
:101BC800D8908B338A3389338C2FFAD70001895107
:101BD8008D6F858FFF0E8417FF0E8517000E8617F1
:101BE80084518E6F85518F6F8651906F916B8E0ED9
:101BF800925F92AF16D09251800A8F0FD8B009D059
:101C0800000E846F000E856F000E866F000E876FC2
:101C18001200D890913390338F338E33923FF9D797
:101C280015D0170E92650FD0000E846F000E856FC9
:101C3800000E866F000E876F1200D8908E378F3790
:101C48009037913792079251D8A4F7D78D51D8B4CD
:101C580008D0911F901F8F1F8E6D000E8F23902329
:101C680091238EC084F08FC085F090C086F091C01B
:101C780087F012004BC04FF0506A516A4A344F3611
:101C880001E350804F50526E5250D8A407D0000E36
:101C9800496E000E4A6E000E4B6E12004EC04FF099
:101CA800506A516A4D344F3601E350804F50576E99
:101CB8005750D8A407D0000E496E000E4A6E000E89
:101CC8004B6E120057507B0F52264BC057F04E50A8
:101CD800571A800E57164A8E4D8EFF0E4C16FF0E61
:101CE8004D16000E4E16000E536E000E546E000E6A
:101CF800556E070E566E49A006D04C5053264D50CF
:101D080054224E505522D8904B324A324932D890FC
:101D18004C364D364E36562EEED7090E566E49A025
:101D280006D04C5053264D5054224E505522D89030
:101D38004B324A324932D890553254325332562EA9
:101D4800EED753C019F054C01AF055C01BF052C05A
:101D58001CF057C01DF02BEC0FF019C049F01AC049
:101D68004AF01BC04BF0120033C037F0386A396AAA
:101D78003234373601E3388037503E6E3E50D8A4AF
:101D880007D0000E316E000E326E000E336E120058
:101D980036C037F0386A396A3534373601E3388067
:101DA80037503F6E3F50D8A407D0000E316E000E5A
:101DB800326E000E336E1200000E3B6E000E3C6E4B
:101DC800000E3D6E3F50890F3E5E33C03FF03650E7
:101DD8003F1A800E3F16328EFF0E3116FF0E321656
:101DE800000E3316358EFF0E3416FF0E3516000E14
:101DF8003616180E3A6ED8903B363C363D3634507F
:101E0800315C3550325836503358D8A007D034504A
:101E1800315E3550325A3650335A3B80D89031367D
:101E2800323633363A2EE7D73BC019F03CC01AF0A9
:101E38003DC01BF03EC01CF03FC01DF02BEC0FF066
:101E480019C031F01AC032F01BC033F012001C5018
:101E5800D8B405D019501A101B10D8A40CD0000EF5
:101E6800196E000E1A6E000E1B6E12001C2AD890F6
:101E78001B321A321932000E19141E6E000E1A1473
:101E88001F6EFE0E1B14206E1E501F102010D8B49B
:101E98000CD0ECD71C2A010E1926000E1A22000EAF
:101EA8001B22D8901B321A321932000E19141E6EDA
:101EB800000E1A141F6EFF0E1B14206E1E501F10EA
:101EC8002010D8B406D0E6D71C06D89019361A3692
:101ED8001B361ABE03D0020E1C60F6D71CA01A9E31
:101EE800D8901C321C501B121D50D8A41B8E19C030
:101EF80019F01AC01AF01BC01BF012001BAE16D046
:101F080019C01FF01AC020F01BC021F01F1E201E90
:101F1800211E1F2A000E20222122000E1F24196EC6
:101F2800000E20201A6E800E21201B6E1EAE16D0C9
:101F38001CC01FF01DC020F01EC021F01F1E201E57
:101F4800211E1F2A000E20222122000E1F241C6E93
:101F5800000E20201D6E800E21201E6E000E191A04
:101F6800000E1A1A800E1B1A000E1C1A000E1D1ADB
:101F7800800E1E1A1C50195C1D501A581E501B58F2
:101F8800D8B002D0D8901200D8801200000E246E6B
:101F980022AE06D0216C221ED8B0222A010E246E51
:101FA80020AE06D01F6C201ED8B0202A010E241A9D
:101FB800000E266E000E256E21502210D8B41CD0BB
:101FC800010E236E04D0D89021362236232A22AE61
:101FD800FAD7D8902536263621501F5C2250205833
:101FE800D8A005D021501F5E2250205A2580D890B5
:101FF80022322132232EEDD72450D8B404D0256CB8
:10200800261ED8B0262A25C01FF026C020F01200B0
:10201800000E216E000E226E000E236E000E246E3E
:102028001D501E101F102010D8B42AD0010E256E86
:1020380006D0D8901D361E361F362036252A20AEEB
:10204800F8D7D89021362236233624361D50195C0D
:102058001E501A581F501B5820501C58D8A009D081
:102068001D50195E1E501A5A1F501B5A20501C5AD8
:102078002180D89020321F321E321D32252EE1D702
:1020880021C019F022C01AF023C01BF024C01CF094
:102098001200000E1E6E1AAE06D0196C1A1ED8B0A9
:1020A8001A2A010E1E6E1CAE04D01B6C1C1ED8B062
:1020B8001C2A1B501C10D8B418D0010E1D6E04D059
:1020C800D8901B361C361D2A1CAEFAD71B50195C3B
:1020D8001C501A58D8A004D01B50195E1C501A5A0C
:1020E800D8901C321B321D2EF1D71E50D8B404D004
:1020F800196C1A1ED8B01A2A19C019F01AC01AF089
:102108001200000E066E02AE06D0016C021ED8B098
:10211800022A010E066E04AE04D0036C041ED8B069
:10212800042A03500410D8B418D0010E056E04D048
:10213800D89003360436052A04AEFAD70350015C5A
:1021480004500258D8A004D00350015E0450025A2B
:10215800D89004320332052EF1D70650D8B404D0F3
:10216800016C021ED8B0022A01C001F002C002F0C0
:102178001200466E4650B3EC12F019C047F01AC070
:1021880048F047C027F048C028F0000E2A6E050E18
:10219800296E1CEC13F027C02DF028C02EF0D0ECCF
:1021A80012F02DC031F02EC032F02FC033F0C00E27
:1021B800346E7F0E356E440E366EB8EC0EF031C0BC
:1021C80043F032C044F033C045F043C040F044C04F
:1021D80041F045C042F012002A502B102C102D104F
:1021E800D8B424D0010E2E6E06D0D8902A362B36BD
:1021F8002C362D362E2A2DAEF8D72A50265C2B5099
:1022080027582C5028582D502958D8A008D02A5083
:10221800265E2B50275A2C50285A2D50295AD890D0
:102228002D322C322B322A322E2EE7D726C026F01A
:1022380027C027F028C028F029C029F0120084946C
:102248008492000E1A6E190E196E2FEC13F0010EFF
:10225800236E030E236401D00BD0030E77EC13F02A
:10226800000E1A6E060E196E2FEC13F0232AF1D702
:10227800020E77EC13F0000E236E030E236401D0D8
:1022880012002350010D620EF324D96E000EF420C3
:10229800DA6EDF50216E000E2DEC12F0232AEDD7F6
:1022A8008E0E296E06D0D890243223322232213263
:1022B800292A000E2114256E000E2214266E000E07
:1022C8002314276EFF0E2414286E2550261027107D
:1022D8002810D8A4E8D721C019F022C01AF023C0CA
:1022E8001BF029C01CF0000E1D6E2BEC0FF019C05E
:1022F80021F01AC022F01BC023F0120015D01AC01A
:10230800F6FF1BC0F7FF000EF86E0F0EF76403D040
:102318000800F55005D0F6CFD9FFF7CFDAFFDF5028
:10232800C2EC13F01A4A1B2A1AC0F6FF1BC0F7FFAB
:10233800000EF86E0F0EF76403D00800F55005D0B4
:10234800F6CFD9FFF7CFDAFFDF500009D8B4120073
:10235800D6D715D027C0F6FF28C0F7FF000EF86EB5
:102368000F0EF76403D00800F55005D0F6CFD9FF5B
:10237800F7CFDAFFDF50D8EC11F0274A282A27C018
:10238800F6FF28C0F7FF000EF86E0F0EF76403D0B3
:102398000800F55005D0F6CFD9FFF7CFDAFFDF50A8
:1023A8000009D8B41200D6D7266E1ED0010E216EB1
:1023B800000E2DEC12F0000E1A6E020E196E2FECA4
:1023C80013F01200020E236E010E72EC12F01200CE
:1023D800100E216E000E2DEC12F0120026C021F016
:1023E800010E2DEC12F012002650080AD8B4F0D7CE
:1023F800020AD8B4E7D7060AD8B4D8D7EFD766EC1C
:1024080013F042EC13F023EC11F0CAEC13F097EC44
:1024180013F0020EBDEC10F040C049F041C04AF084
:1024280042C04BF0000E4C6EC80E4D6E420E4E6E02
:102438003EEC0EF049C0CAF04AC0CBF04BC0CCF01D
:102448001AEC0CF0ABEC0CF03CEC09F0ECEC12F0F4
:10245800E0D7226E22B002D0849401D08484010E89
:1024680005EC13F0010E05EC13F0849221380F0BE4
:1024780077EC13F021500F0B77EC13F02250D8B4FF
:1024880005D0320E0400E82EFDD71200000E1A6E99
:10249800020E196E2FEC13F01200000193519411E3
:1024A8009511D8B406D0000E931B000E941B800E15
:1024B800951B90C087F091C088F092C089F093C0B6
:1024C8008AF094C08BF095C08CF016EC0AF087C0A7
:1024D80090F088C091F089C092F01200246E09D063
:1024E800800E05D0C00E03D0900E01D0D00E256E00
:1024F8000DD02350010AD8B4F3D7030AD8B4F2D7C1
:10250800010AD8B4F1D7070AD8B4F0D7240425268D
:1025180025508009216E000E2DEC12F01200A80E35
:10252800F66E270EF76E000EF86E00EE62F010EEF3
:1025380004F00900F5CFEEFFE550E150FAE100EEB6
:10254800CAF0230EEE6AE806FDE1666A616A606A0F
:102558005F6A5E6A67906792000103EF12F01F6E70
:102568001FC01BF01B461B46C2501B18C30B1B1871
:10257800C26EC282C2B2FED7C350C4CF1BF01C6A5F
:102588001BC01CF01B6A1B101D6E1C501E6E1DC04C
:1025980019F01EC01AF01200000E306E2EAE06D0D2
:1025A8002D6C2E1ED8B02E2A010E306E2DC019F0BB
:1025B8002EC01AF01B6A8E0E1C6E30C01DF02BEC5C
:1025C8000FF019C02DF01AC02EF01BC02FF012000A
:1025D80081B8120066B202D0668201D0669266A205
:1025E80002D0828A01D0829A020E1A6E860E196E65
:1025F800990EE82EFED7192EFCD71A2EFAD700F01E
:1026080012001C6E000E1E6E000E1D6E03D004001C
:102618001D4A1E2A1C50196E1A6A1D50195C1A5040
:10262800800A1B6E1E50800A1B58D8A01200EFD7D4
:1026380027502902F3CF2BF0F4CF2CF027502A0291
:10264800F3502C2628502902F3502C262BC027F0B3
:102658002CC028F01200000E1C6E000E1B6E07D056
:10266800C80E04000400E82EFCD71B4A1C2A1B5085
:10267800195C1C501A58D8A01200F2D7B896000E50
:10268800AC6E190EAF6E000EB06EAC84AC8A000E44
:10269800AB6EAB88AB8EAECF19F0AECF19F012008F
:1026A80019501A101B10D8B406D0000E191A000EB3
:1026B8001A1A800E1B1A19C019F01AC01AF01BC07A
:1026C8001BF01200090EC16E9368000E946E92689A
:1026D800000E956E000E966E000E8B6E000E8C6EC0
:1026E800000E8D6E1200206E20C01FF01F3A83501E
:1026F8001F180F0B1F18836E010E05EC13F0848250
:10270800040000F0849212001B6E000E1A6E3A0E3E
:102718001B6005D02F0E1B6402D0010E1A6E1AC062
:1027280019F019301200870ED56E850ED56EB10ED0
:10273800D76EE00ED66EF28AF28EF28C1200ABB42F
:1027480002D0ABA202D0AB98AB889EAA02D0010EF1
:102758001200000E120066B002D0668001D06690AA
:1027680066A002D08284120082941200A3EC13F0B7
:102778000009D8B4FBD7D0EC13F01200196E01D0C1
:102788000400ACA2FDD719C0ADFF1200000EC26E46
:10279800C280890EC06E1200AECF19F01950120017
:0427A800280C0106F2
:10FEA20000010000000A00000064000000E80300F6
:10FEB2000010270000A086010040420F00809698A3
:10FEC2000000E1F50500CA9A3B00803F0020410096
:10FED200C842007A44401C4650C3472474499718CC
:10FEE2004BBCBE4C6B6E4E03155079AD60F349713D
:10FEF20000803FCDCC3DD7233C12833AB7D138C6E0
:10FF02002737388635C0D633CC2B32708930E7DBC1
:10FF12002EE53C1E42A20D0A54696D65205365749C
:10FF22003A20253032753A253032753A253032750D
:10FF3200000A496E76616C69642074696D6520659A
:10FF42006E7465726564210A00253032753A253077
:10FF520032753A2530327520202020252E31664315
:10FF6200000A4865617465723A2025730A436F6F0F
:10FF72006C65723A20257300416E776172202020F1
:10FF820020202041626F6F64000A253032753A25C5
:10FF92003032753A253032750053657475703A20E7
:10FFA200486F7572732020004E6F726D616C202055
:10FFB20020204D6F64650053657475703A20536557
:10FFC200636F6E64730053657475703A204D696E89
:10FFD2007574657300433A2025732020483A202522
:10FFE20073000A543A20252E316600286E756C6C17
:0EFFF20029004F4E20004F4646004F4E0000A3
:020000040020DA
:08000000FFFFFFFFFFFFFFFF00
:020000040030CA
:0E000000FF011F1FFF8385FF0FC00FE00F40A1
:00000001FF
